{
  "contractName": "Marketplace",
  "abi": [
    {
      "inputs": [
        {
          "internalType": "string",
          "name": "name",
          "type": "string"
        },
        {
          "internalType": "string",
          "name": "symbol",
          "type": "string"
        }
      ],
      "stateMutability": "nonpayable",
      "type": "constructor"
    },
    {
      "anonymous": false,
      "inputs": [
        {
          "indexed": true,
          "internalType": "address",
          "name": "owner",
          "type": "address"
        },
        {
          "indexed": true,
          "internalType": "address",
          "name": "approved",
          "type": "address"
        },
        {
          "indexed": true,
          "internalType": "uint256",
          "name": "tokenId",
          "type": "uint256"
        }
      ],
      "name": "Approval",
      "type": "event"
    },
    {
      "anonymous": false,
      "inputs": [
        {
          "indexed": true,
          "internalType": "address",
          "name": "owner",
          "type": "address"
        },
        {
          "indexed": true,
          "internalType": "address",
          "name": "operator",
          "type": "address"
        },
        {
          "indexed": false,
          "internalType": "bool",
          "name": "approved",
          "type": "bool"
        }
      ],
      "name": "ApprovalForAll",
      "type": "event"
    },
    {
      "anonymous": false,
      "inputs": [
        {
          "indexed": false,
          "internalType": "uint256",
          "name": "_tokenId",
          "type": "uint256"
        },
        {
          "indexed": false,
          "internalType": "uint256",
          "name": "_status",
          "type": "uint256"
        },
        {
          "indexed": false,
          "internalType": "uint256",
          "name": "_price",
          "type": "uint256"
        }
      ],
      "name": "LogArtResell",
      "type": "event"
    },
    {
      "anonymous": false,
      "inputs": [
        {
          "indexed": false,
          "internalType": "uint256",
          "name": "_tokenId",
          "type": "uint256"
        },
        {
          "indexed": false,
          "internalType": "string",
          "name": "_title",
          "type": "string"
        },
        {
          "indexed": false,
          "internalType": "string",
          "name": "_authorName",
          "type": "string"
        },
        {
          "indexed": false,
          "internalType": "uint256",
          "name": "_price",
          "type": "uint256"
        },
        {
          "indexed": false,
          "internalType": "address",
          "name": "_author",
          "type": "address"
        },
        {
          "indexed": false,
          "internalType": "address",
          "name": "_current_owner",
          "type": "address"
        },
        {
          "indexed": false,
          "internalType": "address",
          "name": "_buyer",
          "type": "address"
        }
      ],
      "name": "LogArtSold",
      "type": "event"
    },
    {
      "anonymous": false,
      "inputs": [
        {
          "indexed": false,
          "internalType": "uint256",
          "name": "_tokenId",
          "type": "uint256"
        },
        {
          "indexed": false,
          "internalType": "string",
          "name": "_title",
          "type": "string"
        },
        {
          "indexed": false,
          "internalType": "string",
          "name": "_category",
          "type": "string"
        },
        {
          "indexed": false,
          "internalType": "string",
          "name": "_authorName",
          "type": "string"
        },
        {
          "indexed": false,
          "internalType": "uint256",
          "name": "_price",
          "type": "uint256"
        },
        {
          "indexed": false,
          "internalType": "address",
          "name": "_author",
          "type": "address"
        },
        {
          "indexed": false,
          "internalType": "address",
          "name": "_current_owner",
          "type": "address"
        }
      ],
      "name": "LogArtTokenCreate",
      "type": "event"
    },
    {
      "anonymous": false,
      "inputs": [
        {
          "indexed": true,
          "internalType": "address",
          "name": "from",
          "type": "address"
        },
        {
          "indexed": true,
          "internalType": "address",
          "name": "to",
          "type": "address"
        },
        {
          "indexed": true,
          "internalType": "uint256",
          "name": "tokenId",
          "type": "uint256"
        }
      ],
      "name": "Transfer",
      "type": "event"
    },
    {
      "inputs": [
        {
          "internalType": "address",
          "name": "to",
          "type": "address"
        },
        {
          "internalType": "uint256",
          "name": "tokenId",
          "type": "uint256"
        }
      ],
      "name": "approve",
      "outputs": [],
      "stateMutability": "nonpayable",
      "type": "function"
    },
    {
      "inputs": [
        {
          "internalType": "uint256",
          "name": "",
          "type": "uint256"
        }
      ],
      "name": "arts",
      "outputs": [
        {
          "internalType": "uint256",
          "name": "id",
          "type": "uint256"
        },
        {
          "internalType": "string",
          "name": "title",
          "type": "string"
        },
        {
          "internalType": "string",
          "name": "description",
          "type": "string"
        },
        {
          "internalType": "uint256",
          "name": "price",
          "type": "uint256"
        },
        {
          "internalType": "string",
          "name": "date",
          "type": "string"
        },
        {
          "internalType": "string",
          "name": "authorName",
          "type": "string"
        },
        {
          "internalType": "address payable",
          "name": "author",
          "type": "address"
        },
        {
          "internalType": "address payable",
          "name": "owner",
          "type": "address"
        },
        {
          "internalType": "uint256",
          "name": "status",
          "type": "uint256"
        },
        {
          "internalType": "string",
          "name": "image",
          "type": "string"
        }
      ],
      "stateMutability": "view",
      "type": "function",
      "constant": true
    },
    {
      "inputs": [
        {
          "internalType": "address",
          "name": "owner",
          "type": "address"
        }
      ],
      "name": "balanceOf",
      "outputs": [
        {
          "internalType": "uint256",
          "name": "",
          "type": "uint256"
        }
      ],
      "stateMutability": "view",
      "type": "function",
      "constant": true
    },
    {
      "inputs": [
        {
          "internalType": "uint256",
          "name": "tokenId",
          "type": "uint256"
        }
      ],
      "name": "getApproved",
      "outputs": [
        {
          "internalType": "address",
          "name": "",
          "type": "address"
        }
      ],
      "stateMutability": "view",
      "type": "function",
      "constant": true
    },
    {
      "inputs": [],
      "name": "index",
      "outputs": [
        {
          "internalType": "uint256",
          "name": "",
          "type": "uint256"
        }
      ],
      "stateMutability": "view",
      "type": "function",
      "constant": true
    },
    {
      "inputs": [
        {
          "internalType": "address",
          "name": "owner",
          "type": "address"
        },
        {
          "internalType": "address",
          "name": "operator",
          "type": "address"
        }
      ],
      "name": "isApprovedForAll",
      "outputs": [
        {
          "internalType": "bool",
          "name": "",
          "type": "bool"
        }
      ],
      "stateMutability": "view",
      "type": "function",
      "constant": true
    },
    {
      "inputs": [],
      "name": "name",
      "outputs": [
        {
          "internalType": "string",
          "name": "",
          "type": "string"
        }
      ],
      "stateMutability": "view",
      "type": "function",
      "constant": true
    },
    {
      "inputs": [
        {
          "internalType": "uint256",
          "name": "tokenId",
          "type": "uint256"
        }
      ],
      "name": "ownerOf",
      "outputs": [
        {
          "internalType": "address",
          "name": "",
          "type": "address"
        }
      ],
      "stateMutability": "view",
      "type": "function",
      "constant": true
    },
    {
      "inputs": [
        {
          "internalType": "address",
          "name": "from",
          "type": "address"
        },
        {
          "internalType": "address",
          "name": "to",
          "type": "address"
        },
        {
          "internalType": "uint256",
          "name": "tokenId",
          "type": "uint256"
        }
      ],
      "name": "safeTransferFrom",
      "outputs": [],
      "stateMutability": "nonpayable",
      "type": "function"
    },
    {
      "inputs": [
        {
          "internalType": "address",
          "name": "from",
          "type": "address"
        },
        {
          "internalType": "address",
          "name": "to",
          "type": "address"
        },
        {
          "internalType": "uint256",
          "name": "tokenId",
          "type": "uint256"
        },
        {
          "internalType": "bytes",
          "name": "_data",
          "type": "bytes"
        }
      ],
      "name": "safeTransferFrom",
      "outputs": [],
      "stateMutability": "nonpayable",
      "type": "function"
    },
    {
      "inputs": [
        {
          "internalType": "address",
          "name": "operator",
          "type": "address"
        },
        {
          "internalType": "bool",
          "name": "approved",
          "type": "bool"
        }
      ],
      "name": "setApprovalForAll",
      "outputs": [],
      "stateMutability": "nonpayable",
      "type": "function"
    },
    {
      "inputs": [
        {
          "internalType": "bytes4",
          "name": "interfaceId",
          "type": "bytes4"
        }
      ],
      "name": "supportsInterface",
      "outputs": [
        {
          "internalType": "bool",
          "name": "",
          "type": "bool"
        }
      ],
      "stateMutability": "view",
      "type": "function",
      "constant": true
    },
    {
      "inputs": [],
      "name": "symbol",
      "outputs": [
        {
          "internalType": "string",
          "name": "",
          "type": "string"
        }
      ],
      "stateMutability": "view",
      "type": "function",
      "constant": true
    },
    {
      "inputs": [
        {
          "internalType": "uint256",
          "name": "tokenId",
          "type": "uint256"
        }
      ],
      "name": "tokenURI",
      "outputs": [
        {
          "internalType": "string",
          "name": "",
          "type": "string"
        }
      ],
      "stateMutability": "view",
      "type": "function",
      "constant": true
    },
    {
      "inputs": [
        {
          "internalType": "address",
          "name": "from",
          "type": "address"
        },
        {
          "internalType": "address",
          "name": "to",
          "type": "address"
        },
        {
          "internalType": "uint256",
          "name": "tokenId",
          "type": "uint256"
        }
      ],
      "name": "transferFrom",
      "outputs": [],
      "stateMutability": "nonpayable",
      "type": "function"
    },
    {
      "inputs": [
        {
          "internalType": "string",
          "name": "_title",
          "type": "string"
        },
        {
          "internalType": "string",
          "name": "_description",
          "type": "string"
        },
        {
          "internalType": "string",
          "name": "_date",
          "type": "string"
        },
        {
          "internalType": "string",
          "name": "_authorName",
          "type": "string"
        },
        {
          "internalType": "uint256",
          "name": "_price",
          "type": "uint256"
        },
        {
          "internalType": "string",
          "name": "_image",
          "type": "string"
        }
      ],
      "name": "createNFTToken",
      "outputs": [],
      "stateMutability": "nonpayable",
      "type": "function"
    },
    {
      "inputs": [
        {
          "internalType": "uint256",
          "name": "_tokenId",
          "type": "uint256"
        }
      ],
      "name": "buyNFTArt",
      "outputs": [],
      "stateMutability": "payable",
      "type": "function",
      "payable": true
    },
    {
      "inputs": [
        {
          "internalType": "uint256",
          "name": "_tokenId",
          "type": "uint256"
        }
      ],
      "name": "findNFTArt",
      "outputs": [
        {
          "internalType": "uint256",
          "name": "",
          "type": "uint256"
        },
        {
          "internalType": "string",
          "name": "",
          "type": "string"
        },
        {
          "internalType": "string",
          "name": "",
          "type": "string"
        },
        {
          "internalType": "uint256",
          "name": "",
          "type": "uint256"
        },
        {
          "internalType": "uint256",
          "name": "status",
          "type": "uint256"
        },
        {
          "internalType": "string",
          "name": "",
          "type": "string"
        },
        {
          "internalType": "string",
          "name": "",
          "type": "string"
        },
        {
          "internalType": "address",
          "name": "",
          "type": "address"
        },
        {
          "internalType": "address payable",
          "name": "",
          "type": "address"
        },
        {
          "internalType": "string",
          "name": "",
          "type": "string"
        }
      ],
      "stateMutability": "view",
      "type": "function",
      "constant": true
    },
    {
      "inputs": [
        {
          "internalType": "uint256",
          "name": "_tokenId",
          "type": "uint256"
        },
        {
          "internalType": "uint256",
          "name": "_price",
          "type": "uint256"
        }
      ],
      "name": "resellNFTArt",
      "outputs": [],
      "stateMutability": "payable",
      "type": "function",
      "payable": true
    },
    {
      "inputs": [],
      "name": "findAllPendingArt",
      "outputs": [
        {
          "internalType": "uint256[]",
          "name": "",
          "type": "uint256[]"
        },
        {
          "internalType": "address[]",
          "name": "",
          "type": "address[]"
        },
        {
          "internalType": "address[]",
          "name": "",
          "type": "address[]"
        },
        {
          "internalType": "uint256[]",
          "name": "",
          "type": "uint256[]"
        }
      ],
      "stateMutability": "view",
      "type": "function",
      "constant": true
    },
    {
      "inputs": [],
      "name": "findMyNFTArts",
      "outputs": [
        {
          "internalType": "uint256[]",
          "name": "_myArts",
          "type": "uint256[]"
        },
        {
          "internalType": "uint256",
          "name": "tokens",
          "type": "uint256"
        }
      ],
      "stateMutability": "view",
      "type": "function",
      "constant": true
    },
    {
      "inputs": [
        {
          "internalType": "uint256",
          "name": "tokenId",
          "type": "uint256"
        },
        {
          "internalType": "address",
          "name": "account",
          "type": "address"
        }
      ],
      "name": "isOwnerOf",
      "outputs": [
        {
          "internalType": "bool",
          "name": "",
          "type": "bool"
        }
      ],
      "stateMutability": "view",
      "type": "function",
      "constant": true
    },
    {
      "inputs": [],
      "name": "get_symbol",
      "outputs": [
        {
          "internalType": "string",
          "name": "",
          "type": "string"
        }
      ],
      "stateMutability": "view",
      "type": "function",
      "constant": true
    },
    {
      "inputs": [],
      "name": "get_name",
      "outputs": [
        {
          "internalType": "string",
          "name": "",
          "type": "string"
        }
      ],
      "stateMutability": "view",
      "type": "function",
      "constant": true
    }
  ],
  "bytecode": "0x60806040523480156200001157600080fd5b5060405162005310380380620053108339818101604052810190620000379190620002c2565b818181600090805190602001906200005192919062000075565b5080600190805190602001906200006a92919062000075565b5050505050620003ac565b828054620000839062000376565b90600052602060002090601f016020900481019282620000a75760008555620000f3565b82601f10620000c257805160ff1916838001178555620000f3565b82800160010185558215620000f3579182015b82811115620000f2578251825591602001919060010190620000d5565b5b50905062000102919062000106565b5090565b5b808211156200012157600081600090555060010162000107565b5090565b6000604051905090565b600080fd5b600080fd5b600080fd5b600080fd5b6000601f19601f8301169050919050565b7f4e487b7100000000000000000000000000000000000000000000000000000000600052604160045260246000fd5b6200018e8262000143565b810181811067ffffffffffffffff82111715620001b057620001af62000154565b5b80604052505050565b6000620001c562000125565b9050620001d3828262000183565b919050565b600067ffffffffffffffff821115620001f657620001f562000154565b5b620002018262000143565b9050602081019050919050565b60005b838110156200022e57808201518184015260208101905062000211565b838111156200023e576000848401525b50505050565b60006200025b6200025584620001d8565b620001b9565b9050828152602081018484840111156200027a57620002796200013e565b5b620002878482856200020e565b509392505050565b600082601f830112620002a757620002a662000139565b5b8151620002b984826020860162000244565b91505092915050565b60008060408385031215620002dc57620002db6200012f565b5b600083015167ffffffffffffffff811115620002fd57620002fc62000134565b5b6200030b858286016200028f565b925050602083015167ffffffffffffffff8111156200032f576200032e62000134565b5b6200033d858286016200028f565b9150509250929050565b7f4e487b7100000000000000000000000000000000000000000000000000000000600052602260045260246000fd5b600060028204905060018216806200038f57607f821691505b60208210811415620003a657620003a562000347565b5b50919050565b614f5480620003bc6000396000f3fe60806040526004361061014b5760003560e01c80636352211e116100b6578063b251ed9c1161006f578063b251ed9c146104b8578063b88d4fde146104d4578063bfc7622a146104fd578063c87b56dd14610526578063e57a104a14610563578063e985e9c5146105a95761014b565b80636352211e1461039157806370a08231146103ce57806389b958c21461040b57806395d89b41146104275780639ac016e214610452578063a22cb4651461048f5761014b565b806323b872dd1161010857806323b872dd146102925780632986c0e5146102bb578063301b5ab8146102e65780633a525c291461031157806342842e0e1461033c57806357778f0b146103655761014b565b806301ffc9a714610150578063063fc9661461018d57806306fdde03146101bb578063081812fc146101e6578063095ea7b3146102235780630f619d951461024c575b600080fd5b34801561015c57600080fd5b50610177600480360381019061017291906134d9565b6105e6565b6040516101849190613521565b60405180910390f35b34801561019957600080fd5b506101a26106c8565b6040516101b294939291906136f4565b60405180910390f35b3480156101c757600080fd5b506101d0610e6c565b6040516101dd91906137ee565b60405180910390f35b3480156101f257600080fd5b5061020d6004803603810190610208919061383c565b610efe565b60405161021a9190613878565b60405180910390f35b34801561022f57600080fd5b5061024a600480360381019061024591906138bf565b610f83565b005b34801561025857600080fd5b50610273600480360381019061026e919061383c565b61109b565b6040516102899a9998979695949392919061392f565b60405180910390f35b34801561029e57600080fd5b506102b960048036038101906102b491906139ee565b6114d7565b005b3480156102c757600080fd5b506102d0611537565b6040516102dd9190613a41565b60405180910390f35b3480156102f257600080fd5b506102fb61153d565b60405161030891906137ee565b60405180910390f35b34801561031d57600080fd5b5061032661154c565b60405161033391906137ee565b60405180910390f35b34801561034857600080fd5b50610363600480360381019061035e91906139ee565b61155b565b005b34801561037157600080fd5b5061037a61157b565b604051610388929190613a5c565b60405180910390f35b34801561039d57600080fd5b506103b860048036038101906103b3919061383c565b611715565b6040516103c59190613878565b60405180910390f35b3480156103da57600080fd5b506103f560048036038101906103f09190613a8c565b6117c7565b6040516104029190613a41565b60405180910390f35b6104256004803603810190610420919061383c565b61187f565b005b34801561043357600080fd5b5061043c611ce1565b60405161044991906137ee565b60405180910390f35b34801561045e57600080fd5b5061047960048036038101906104749190613ab9565b611d73565b6040516104869190613521565b60405180910390f35b34801561049b57600080fd5b506104b660048036038101906104b19190613b25565b611df3565b005b6104d260048036038101906104cd9190613b65565b611e09565b005b3480156104e057600080fd5b506104fb60048036038101906104f69190613cda565b611f03565b005b34801561050957600080fd5b50610524600480360381019061051f9190613dfe565b611f65565b005b34801561053257600080fd5b5061054d6004803603810190610548919061383c565b61233b565b60405161055a91906137ee565b60405180910390f35b34801561056f57600080fd5b5061058a6004803603810190610585919061383c565b6123e2565b6040516105a09a99989796959493929190613f17565b60405180910390f35b3480156105b557600080fd5b506105d060048036038101906105cb9190613fd6565b61272e565b6040516105dd9190613521565b60405180910390f35b60007f80ac58cd000000000000000000000000000000000000000000000000000000007bffffffffffffffffffffffffffffffffffffffffffffffffffffffff1916827bffffffffffffffffffffffffffffffffffffffffffffffffffffffff191614806106b157507f5b5e139f000000000000000000000000000000000000000000000000000000007bffffffffffffffffffffffffffffffffffffffffffffffffffffffff1916827bffffffffffffffffffffffffffffffffffffffffffffffffffffffff1916145b806106c157506106c0826127c2565b5b9050919050565b6060806060806000600654141561080e57600067ffffffffffffffff8111156106f4576106f3613baf565b5b6040519080825280602002602001820160405280156107225781602001602082028036833780820191505090505b50600067ffffffffffffffff81111561073e5761073d613baf565b5b60405190808252806020026020018201604052801561076c5781602001602082028036833780820191505090505b50600067ffffffffffffffff81111561078857610787613baf565b5b6040519080825280602002602001820160405280156107b65781602001602082028036833780820191505090505b50600067ffffffffffffffff8111156107d2576107d1613baf565b5b6040519080825280602002602001820160405280156108005781602001602082028036833780820191505090505b509350935093509350610e66565b60006009805490509050600060065467ffffffffffffffff81111561083657610835613baf565b5b6040519080825280602002602001820160405280156108645781602001602082028036833780820191505090505b509050600060065467ffffffffffffffff81111561088557610884613baf565b5b6040519080825280602002602001820160405280156108b35781602001602082028036833780820191505090505b509050600060065467ffffffffffffffff8111156108d4576108d3613baf565b5b6040519080825280602002602001820160405280156109025781602001602082028036833780820191505090505b509050600060065467ffffffffffffffff81111561092357610922613baf565b5b6040519080825280602002602001820160405280156109515781602001602082028036833780820191505090505b5090506000805b86811015610e525760006009828154811061097657610975614016565b5b90600052602060002090600a020160405180610140016040529081600082015481526020016001820180546109aa90614074565b80601f01602080910402602001604051908101604052809291908181526020018280546109d690614074565b8015610a235780601f106109f857610100808354040283529160200191610a23565b820191906000526020600020905b815481529060010190602001808311610a0657829003601f168201915b50505050508152602001600282018054610a3c90614074565b80601f0160208091040260200160405190810160405280929190818152602001828054610a6890614074565b8015610ab55780601f10610a8a57610100808354040283529160200191610ab5565b820191906000526020600020905b815481529060010190602001808311610a9857829003601f168201915b5050505050815260200160038201548152602001600482018054610ad890614074565b80601f0160208091040260200160405190810160405280929190818152602001828054610b0490614074565b8015610b515780601f10610b2657610100808354040283529160200191610b51565b820191906000526020600020905b815481529060010190602001808311610b3457829003601f168201915b50505050508152602001600582018054610b6a90614074565b80601f0160208091040260200160405190810160405280929190818152602001828054610b9690614074565b8015610be35780601f10610bb857610100808354040283529160200191610be3565b820191906000526020600020905b815481529060010190602001808311610bc657829003601f168201915b505050505081526020016006820160009054906101000a900473ffffffffffffffffffffffffffffffffffffffff1673ffffffffffffffffffffffffffffffffffffffff1673ffffffffffffffffffffffffffffffffffffffff1681526020016007820160009054906101000a900473ffffffffffffffffffffffffffffffffffffffff1673ffffffffffffffffffffffffffffffffffffffff1673ffffffffffffffffffffffffffffffffffffffff16815260200160088201548152602001600982018054610cb290614074565b80601f0160208091040260200160405190810160405280929190818152602001828054610cde90614074565b8015610d2b5780601f10610d0057610100808354040283529160200191610d2b565b820191906000526020600020905b815481529060010190602001808311610d0e57829003601f168201915b505050505081525050905060018161010001511415610e40578060000151878481518110610d5c57610d5b614016565b5b6020026020010181815250508060c00151868481518110610d8057610d7f614016565b5b602002602001019073ffffffffffffffffffffffffffffffffffffffff16908173ffffffffffffffffffffffffffffffffffffffff16815250508060e00151858481518110610dd257610dd1614016565b5b602002602001019073ffffffffffffffffffffffffffffffffffffffff16908173ffffffffffffffffffffffffffffffffffffffff1681525050806101000151848481518110610e2557610e24614016565b5b6020026020010181815250508280610e3c906140d5565b9350505b5080610e4b906140d5565b9050610958565b508484848499509950995099505050505050505b90919293565b606060008054610e7b90614074565b80601f0160208091040260200160405190810160405280929190818152602001828054610ea790614074565b8015610ef45780601f10610ec957610100808354040283529160200191610ef4565b820191906000526020600020905b815481529060010190602001808311610ed757829003601f168201915b5050505050905090565b6000610f098261282c565b610f48576040517f08c379a0000000000000000000000000000000000000000000000000000000008152600401610f3f90614190565b60405180910390fd5b6004600083815260200190815260200160002060009054906101000a900473ffffffffffffffffffffffffffffffffffffffff169050919050565b6000610f8e82611715565b90508073ffffffffffffffffffffffffffffffffffffffff168373ffffffffffffffffffffffffffffffffffffffff161415610fff576040517f08c379a0000000000000000000000000000000000000000000000000000000008152600401610ff690614222565b60405180910390fd5b8073ffffffffffffffffffffffffffffffffffffffff1661101e612898565b73ffffffffffffffffffffffffffffffffffffffff16148061104d575061104c81611047612898565b61272e565b5b61108c576040517f08c379a0000000000000000000000000000000000000000000000000000000008152600401611083906142b4565b60405180910390fd5b61109683836128a0565b505050565b60006060806000806060806000806060600060098c815481106110c1576110c0614016565b5b90600052602060002090600a020160405180610140016040529081600082015481526020016001820180546110f590614074565b80601f016020809104026020016040519081016040528092919081815260200182805461112190614074565b801561116e5780601f106111435761010080835404028352916020019161116e565b820191906000526020600020905b81548152906001019060200180831161115157829003601f168201915b5050505050815260200160028201805461118790614074565b80601f01602080910402602001604051908101604052809291908181526020018280546111b390614074565b80156112005780601f106111d557610100808354040283529160200191611200565b820191906000526020600020905b8154815290600101906020018083116111e357829003601f168201915b505050505081526020016003820154815260200160048201805461122390614074565b80601f016020809104026020016040519081016040528092919081815260200182805461124f90614074565b801561129c5780601f106112715761010080835404028352916020019161129c565b820191906000526020600020905b81548152906001019060200180831161127f57829003601f168201915b505050505081526020016005820180546112b590614074565b80601f01602080910402602001604051908101604052809291908181526020018280546112e190614074565b801561132e5780601f106113035761010080835404028352916020019161132e565b820191906000526020600020905b81548152906001019060200180831161131157829003601f168201915b505050505081526020016006820160009054906101000a900473ffffffffffffffffffffffffffffffffffffffff1673ffffffffffffffffffffffffffffffffffffffff1673ffffffffffffffffffffffffffffffffffffffff1681526020016007820160009054906101000a900473ffffffffffffffffffffffffffffffffffffffff1673ffffffffffffffffffffffffffffffffffffffff1673ffffffffffffffffffffffffffffffffffffffff168152602001600882015481526020016009820180546113fd90614074565b80601f016020809104026020016040519081016040528092919081815260200182805461142990614074565b80156114765780601f1061144b57610100808354040283529160200191611476565b820191906000526020600020905b81548152906001019060200180831161145957829003601f168201915b5050505050815250509050806000015181602001518260400151836060015184610100015185608001518660a001518760c001518860e001518961012001519a509a509a509a509a509a509a509a509a509a50509193959799509193959799565b6114e86114e2612898565b82612959565b611527576040517f08c379a000000000000000000000000000000000000000000000000000000000815260040161151e90614346565b60405180910390fd5b611532838383612a37565b505050565b60085481565b6060611547611ce1565b905090565b6060611556610e6c565b905090565b61157683838360405180602001604052806000815250611f03565b505050565b606060008073ffffffffffffffffffffffffffffffffffffffff163373ffffffffffffffffffffffffffffffffffffffff1614156115b857600080fd5b60006115c3336117c7565b9050600081141561162457600067ffffffffffffffff8111156115e9576115e8613baf565b5b6040519080825280602002602001820160405280156116175781602001602082028036833780820191505090505b5060009250925050611711565b60008167ffffffffffffffff8111156116405761163f613baf565b5b60405190808252806020026020018201604052801561166e5781602001602082028036833780820191505090505b509050600080600980549050905060005b81811015611705573373ffffffffffffffffffffffffffffffffffffffff166116a782611715565b73ffffffffffffffffffffffffffffffffffffffff1614156116f257808484815181106116d7576116d6614016565b5b60200260200101818152505082806116ee906140d5565b9350505b80806116fd906140d5565b91505061167f565b50828495509550505050505b9091565b6000806002600084815260200190815260200160002060009054906101000a900473ffffffffffffffffffffffffffffffffffffffff169050600073ffffffffffffffffffffffffffffffffffffffff168173ffffffffffffffffffffffffffffffffffffffff1614156117be576040517f08c379a00000000000000000000000000000000000000000000000000000000081526004016117b5906143d8565b60405180910390fd5b80915050919050565b60008073ffffffffffffffffffffffffffffffffffffffff168273ffffffffffffffffffffffffffffffffffffffff161415611838576040517f08c379a000000000000000000000000000000000000000000000000000000000815260040161182f9061446a565b60405180910390fd5b600360008373ffffffffffffffffffffffffffffffffffffffff1673ffffffffffffffffffffffffffffffffffffffff168152602001908152602001600020549050919050565b60008060008060008060006118938861109b565b5098509850985050975097505096509650600073ffffffffffffffffffffffffffffffffffffffff168173ffffffffffffffffffffffffffffffffffffffff1614156118de57600080fd5b600073ffffffffffffffffffffffffffffffffffffffff163373ffffffffffffffffffffffffffffffffffffffff16141561191857600080fd5b8073ffffffffffffffffffffffffffffffffffffffff163373ffffffffffffffffffffffffffffffffffffffff16141561195157600080fd5b8434101561195e57600080fd5b600073ffffffffffffffffffffffffffffffffffffffff166009898154811061198a57611989614016565b5b90600052602060002090600a020160070160009054906101000a900473ffffffffffffffffffffffffffffffffffffffff1673ffffffffffffffffffffffffffffffffffffffff1614156119dd57600080fd5b6119f881338a60405180602001604052806000815250612c93565b84341115611a53573373ffffffffffffffffffffffffffffffffffffffff166108fc8634611a26919061448a565b9081150290604051600060405180830381858888f19350505050158015611a51573d6000803e3d6000fd5b505b8073ffffffffffffffffffffffffffffffffffffffff166108fc869081150290604051600060405180830381858888f19350505050158015611a99573d6000803e3d6000fd5b503360098981548110611aaf57611aae614016565b5b90600052602060002090600a020160070160006101000a81548173ffffffffffffffffffffffffffffffffffffffff021916908373ffffffffffffffffffffffffffffffffffffffff160217905550600060098981548110611b1457611b13614016565b5b90600052602060002090600a02016008018190555060006040518060c001604052808981526020018781526020018373ffffffffffffffffffffffffffffffffffffffff1681526020013373ffffffffffffffffffffffffffffffffffffffff16815260200142815260200186815250905060076000898152602001908152602001600020819080600181540180825580915050600190039060005260206000209060060201600090919091909150600082015181600001556020820151816001015560408201518160020160006101000a81548173ffffffffffffffffffffffffffffffffffffffff021916908373ffffffffffffffffffffffffffffffffffffffff16021790555060608201518160030160006101000a81548173ffffffffffffffffffffffffffffffffffffffff021916908373ffffffffffffffffffffffffffffffffffffffff1602179055506080820151816004015560a08201518160050155505060066000815480929190611c8e906144be565b91905055507f33157a2d6e087f53ff6fc0edba4550aa6df53452ece435476cd3ab334ad50c3489888689878733604051611cce9796959493929190614547565b60405180910390a1505050505050505050565b606060018054611cf090614074565b80601f0160208091040260200160405190810160405280929190818152602001828054611d1c90614074565b8015611d695780601f10611d3e57610100808354040283529160200191611d69565b820191906000526020600020905b815481529060010190602001808311611d4c57829003601f168201915b5050505050905090565b600080611d7f84611715565b9050600073ffffffffffffffffffffffffffffffffffffffff168173ffffffffffffffffffffffffffffffffffffffff161415611dbb57600080fd5b8273ffffffffffffffffffffffffffffffffffffffff168173ffffffffffffffffffffffffffffffffffffffff161491505092915050565b611e05611dfe612898565b8383612cef565b5050565b600073ffffffffffffffffffffffffffffffffffffffff163373ffffffffffffffffffffffffffffffffffffffff161415611e4357600080fd5b611e4d8233611d73565b611e5657600080fd5b600160098381548110611e6c57611e6b614016565b5b90600052602060002090600a0201600801819055508060098381548110611e9657611e95614016565b5b90600052602060002090600a02016003018190555060066000815480929190611ebe906140d5565b91905055507f8916ae292317d6f324a5ed02fea84bf6881d4065b6d575a8980442469b882b7a82600183604051611ef7939291906145ff565b60405180910390a15050565b611f14611f0e612898565b83612959565b611f53576040517f08c379a0000000000000000000000000000000000000000000000000000000008152600401611f4a90614346565b60405180910390fd5b611f5f84848484612c93565b50505050565b6000865111611fa9576040517f08c379a0000000000000000000000000000000000000000000000000000000008152600401611fa090614682565b60405180910390fd5b6000845111611fed576040517f08c379a0000000000000000000000000000000000000000000000000000000008152600401611fe4906146ee565b60405180910390fd5b6000855111612031576040517f08c379a00000000000000000000000000000000000000000000000000000000081526004016120289061475a565b60405180910390fd5b60008211612074576040517f08c379a000000000000000000000000000000000000000000000000000000000815260040161206b906147c6565b60405180910390fd5b60008151116120b8576040517f08c379a00000000000000000000000000000000000000000000000000000000081526004016120af90614832565b60405180910390fd5b600060405180610140016040528060085481526020018881526020018781526020018481526020018681526020018581526020013373ffffffffffffffffffffffffffffffffffffffff1681526020013373ffffffffffffffffffffffffffffffffffffffff1681526020016001815260200183815250905060098190806001815401808255809150506001900390600052602060002090600a02016000909190919091506000820151816000015560208201518160010190805190602001906121839291906133ca565b5060408201518160020190805190602001906121a09291906133ca565b506060820151816003015560808201518160040190805190602001906121c79291906133ca565b5060a08201518160050190805190602001906121e49291906133ca565b5060c08201518160060160006101000a81548173ffffffffffffffffffffffffffffffffffffffff021916908373ffffffffffffffffffffffffffffffffffffffff16021790555060e08201518160070160006101000a81548173ffffffffffffffffffffffffffffffffffffffff021916908373ffffffffffffffffffffffffffffffffffffffff160217905550610100820151816008015561012082015181600901908051906020019061229b9291906133ca565b505050600060016009805490506122b2919061448a565b90506122be3382612e5c565b7ff376cc32e072d5cce6d2829c66b30d30fa0bd8fccda5e8fc27dab25430505715818988888833336040516122f99796959493929190614852565b60405180910390a160086000815480929190612314906140d5565b91905055506006600081548092919061232c906140d5565b91905055505050505050505050565b60606123468261282c565b612385576040517f08c379a000000000000000000000000000000000000000000000000000000000815260040161237c90614948565b60405180910390fd5b600061238f612e7a565b905060008151116123af57604051806020016040528060008152506123da565b806123b984612e91565b6040516020016123ca9291906149a4565b6040516020818303038152906040525b915050919050565b600981815481106123f257600080fd5b90600052602060002090600a020160009150905080600001549080600101805461241b90614074565b80601f016020809104026020016040519081016040528092919081815260200182805461244790614074565b80156124945780601f1061246957610100808354040283529160200191612494565b820191906000526020600020905b81548152906001019060200180831161247757829003601f168201915b5050505050908060020180546124a990614074565b80601f01602080910402602001604051908101604052809291908181526020018280546124d590614074565b80156125225780601f106124f757610100808354040283529160200191612522565b820191906000526020600020905b81548152906001019060200180831161250557829003601f168201915b50505050509080600301549080600401805461253d90614074565b80601f016020809104026020016040519081016040528092919081815260200182805461256990614074565b80156125b65780601f1061258b576101008083540402835291602001916125b6565b820191906000526020600020905b81548152906001019060200180831161259957829003601f168201915b5050505050908060050180546125cb90614074565b80601f01602080910402602001604051908101604052809291908181526020018280546125f790614074565b80156126445780601f1061261957610100808354040283529160200191612644565b820191906000526020600020905b81548152906001019060200180831161262757829003601f168201915b5050505050908060060160009054906101000a900473ffffffffffffffffffffffffffffffffffffffff16908060070160009054906101000a900473ffffffffffffffffffffffffffffffffffffffff16908060080154908060090180546126ab90614074565b80601f01602080910402602001604051908101604052809291908181526020018280546126d790614074565b80156127245780601f106126f957610100808354040283529160200191612724565b820191906000526020600020905b81548152906001019060200180831161270757829003601f168201915b505050505090508a565b6000600560008473ffffffffffffffffffffffffffffffffffffffff1673ffffffffffffffffffffffffffffffffffffffff16815260200190815260200160002060008373ffffffffffffffffffffffffffffffffffffffff1673ffffffffffffffffffffffffffffffffffffffff16815260200190815260200160002060009054906101000a900460ff16905092915050565b60007f01ffc9a7000000000000000000000000000000000000000000000000000000007bffffffffffffffffffffffffffffffffffffffffffffffffffffffff1916827bffffffffffffffffffffffffffffffffffffffffffffffffffffffff1916149050919050565b60008073ffffffffffffffffffffffffffffffffffffffff166002600084815260200190815260200160002060009054906101000a900473ffffffffffffffffffffffffffffffffffffffff1673ffffffffffffffffffffffffffffffffffffffff1614159050919050565b600033905090565b816004600083815260200190815260200160002060006101000a81548173ffffffffffffffffffffffffffffffffffffffff021916908373ffffffffffffffffffffffffffffffffffffffff160217905550808273ffffffffffffffffffffffffffffffffffffffff1661291383611715565b73ffffffffffffffffffffffffffffffffffffffff167f8c5be1e5ebec7d5bd14f71427d1e84f3dd0314c0f7b2291e5b200ac8c7c3b92560405160405180910390a45050565b60006129648261282c565b6129a3576040517f08c379a000000000000000000000000000000000000000000000000000000000815260040161299a90614a3a565b60405180910390fd5b60006129ae83611715565b90508073ffffffffffffffffffffffffffffffffffffffff168473ffffffffffffffffffffffffffffffffffffffff161480612a1d57508373ffffffffffffffffffffffffffffffffffffffff16612a0584610efe565b73ffffffffffffffffffffffffffffffffffffffff16145b80612a2e5750612a2d818561272e565b5b91505092915050565b8273ffffffffffffffffffffffffffffffffffffffff16612a5782611715565b73ffffffffffffffffffffffffffffffffffffffff1614612aad576040517f08c379a0000000000000000000000000000000000000000000000000000000008152600401612aa490614acc565b60405180910390fd5b600073ffffffffffffffffffffffffffffffffffffffff168273ffffffffffffffffffffffffffffffffffffffff161415612b1d576040517f08c379a0000000000000000000000000000000000000000000000000000000008152600401612b1490614b5e565b60405180910390fd5b612b28838383612ff2565b612b336000826128a0565b6001600360008573ffffffffffffffffffffffffffffffffffffffff1673ffffffffffffffffffffffffffffffffffffffff1681526020019081526020016000206000828254612b83919061448a565b925050819055506001600360008473ffffffffffffffffffffffffffffffffffffffff1673ffffffffffffffffffffffffffffffffffffffff1681526020019081526020016000206000828254612bda9190614b7e565b92505081905550816002600083815260200190815260200160002060006101000a81548173ffffffffffffffffffffffffffffffffffffffff021916908373ffffffffffffffffffffffffffffffffffffffff160217905550808273ffffffffffffffffffffffffffffffffffffffff168473ffffffffffffffffffffffffffffffffffffffff167fddf252ad1be2c89b69c2b068fc378daa952ba7f163c4a11628f55a4df523b3ef60405160405180910390a4505050565b612c9e848484612a37565b612caa84848484612ff7565b612ce9576040517f08c379a0000000000000000000000000000000000000000000000000000000008152600401612ce090614c46565b60405180910390fd5b50505050565b8173ffffffffffffffffffffffffffffffffffffffff168373ffffffffffffffffffffffffffffffffffffffff161415612d5e576040517f08c379a0000000000000000000000000000000000000000000000000000000008152600401612d5590614cb2565b60405180910390fd5b80600560008573ffffffffffffffffffffffffffffffffffffffff1673ffffffffffffffffffffffffffffffffffffffff16815260200190815260200160002060008473ffffffffffffffffffffffffffffffffffffffff1673ffffffffffffffffffffffffffffffffffffffff16815260200190815260200160002060006101000a81548160ff0219169083151502179055508173ffffffffffffffffffffffffffffffffffffffff168373ffffffffffffffffffffffffffffffffffffffff167f17307eab39ab6107e8899845ad3d59bd9653f200f220920489ca2b5937696c3183604051612e4f9190613521565b60405180910390a3505050565b612e7682826040518060200160405280600081525061318e565b5050565b606060405180602001604052806000815250905090565b60606000821415612ed9576040518060400160405280600181526020017f30000000000000000000000000000000000000000000000000000000000000008152509050612fed565b600082905060005b60008214612f0b578080612ef4906140d5565b915050600a82612f049190614d01565b9150612ee1565b60008167ffffffffffffffff811115612f2757612f26613baf565b5b6040519080825280601f01601f191660200182016040528015612f595781602001600182028036833780820191505090505b5090505b60008514612fe657600182612f72919061448a565b9150600a85612f819190614d32565b6030612f8d9190614b7e565b60f81b818381518110612fa357612fa2614016565b5b60200101907effffffffffffffffffffffffffffffffffffffffffffffffffffffffffffff1916908160001a905350600a85612fdf9190614d01565b9450612f5d565b8093505050505b919050565b505050565b60006130188473ffffffffffffffffffffffffffffffffffffffff166131e9565b15613181578373ffffffffffffffffffffffffffffffffffffffff1663150b7a02613041612898565b8786866040518563ffffffff1660e01b81526004016130639493929190614db8565b602060405180830381600087803b15801561307d57600080fd5b505af19250505080156130ae57506040513d601f19601f820116820180604052508101906130ab9190614e19565b60015b613131573d80600081146130de576040519150601f19603f3d011682016040523d82523d6000602084013e6130e3565b606091505b50600081511415613129576040517f08c379a000000000000000000000000000000000000000000000000000000000815260040161312090614c46565b60405180910390fd5b805181602001fd5b63150b7a0260e01b7bffffffffffffffffffffffffffffffffffffffffffffffffffffffff1916817bffffffffffffffffffffffffffffffffffffffffffffffffffffffff191614915050613186565b600190505b949350505050565b61319883836131fc565b6131a56000848484612ff7565b6131e4576040517f08c379a00000000000000000000000000000000000000000000000000000000081526004016131db90614c46565b60405180910390fd5b505050565b600080823b905060008111915050919050565b600073ffffffffffffffffffffffffffffffffffffffff168273ffffffffffffffffffffffffffffffffffffffff16141561326c576040517f08c379a000000000000000000000000000000000000000000000000000000000815260040161326390614e92565b60405180910390fd5b6132758161282c565b156132b5576040517f08c379a00000000000000000000000000000000000000000000000000000000081526004016132ac90614efe565b60405180910390fd5b6132c160008383612ff2565b6001600360008473ffffffffffffffffffffffffffffffffffffffff1673ffffffffffffffffffffffffffffffffffffffff16815260200190815260200160002060008282546133119190614b7e565b92505081905550816002600083815260200190815260200160002060006101000a81548173ffffffffffffffffffffffffffffffffffffffff021916908373ffffffffffffffffffffffffffffffffffffffff160217905550808273ffffffffffffffffffffffffffffffffffffffff16600073ffffffffffffffffffffffffffffffffffffffff167fddf252ad1be2c89b69c2b068fc378daa952ba7f163c4a11628f55a4df523b3ef60405160405180910390a45050565b8280546133d690614074565b90600052602060002090601f0160209004810192826133f8576000855561343f565b82601f1061341157805160ff191683800117855561343f565b8280016001018555821561343f579182015b8281111561343e578251825591602001919060010190613423565b5b50905061344c9190613450565b5090565b5b80821115613469576000816000905550600101613451565b5090565b6000604051905090565b600080fd5b600080fd5b60007fffffffff0000000000000000000000000000000000000000000000000000000082169050919050565b6134b681613481565b81146134c157600080fd5b50565b6000813590506134d3816134ad565b92915050565b6000602082840312156134ef576134ee613477565b5b60006134fd848285016134c4565b91505092915050565b60008115159050919050565b61351b81613506565b82525050565b60006020820190506135366000830184613512565b92915050565b600081519050919050565b600082825260208201905092915050565b6000819050602082019050919050565b6000819050919050565b61357b81613568565b82525050565b600061358d8383613572565b60208301905092915050565b6000602082019050919050565b60006135b18261353c565b6135bb8185613547565b93506135c683613558565b8060005b838110156135f75781516135de8882613581565b97506135e983613599565b9250506001810190506135ca565b5085935050505092915050565b600081519050919050565b600082825260208201905092915050565b6000819050602082019050919050565b600073ffffffffffffffffffffffffffffffffffffffff82169050919050565b600061365b82613630565b9050919050565b61366b81613650565b82525050565b600061367d8383613662565b60208301905092915050565b6000602082019050919050565b60006136a182613604565b6136ab818561360f565b93506136b683613620565b8060005b838110156136e75781516136ce8882613671565b97506136d983613689565b9250506001810190506136ba565b5085935050505092915050565b6000608082019050818103600083015261370e81876135a6565b905081810360208301526137228186613696565b905081810360408301526137368185613696565b9050818103606083015261374a81846135a6565b905095945050505050565b600081519050919050565b600082825260208201905092915050565b60005b8381101561378f578082015181840152602081019050613774565b8381111561379e576000848401525b50505050565b6000601f19601f8301169050919050565b60006137c082613755565b6137ca8185613760565b93506137da818560208601613771565b6137e3816137a4565b840191505092915050565b6000602082019050818103600083015261380881846137b5565b905092915050565b61381981613568565b811461382457600080fd5b50565b60008135905061383681613810565b92915050565b60006020828403121561385257613851613477565b5b600061386084828501613827565b91505092915050565b61387281613650565b82525050565b600060208201905061388d6000830184613869565b92915050565b61389c81613650565b81146138a757600080fd5b50565b6000813590506138b981613893565b92915050565b600080604083850312156138d6576138d5613477565b5b60006138e4858286016138aa565b92505060206138f585828601613827565b9150509250929050565b61390881613568565b82525050565b600061391982613630565b9050919050565b6139298161390e565b82525050565b600061014082019050613945600083018d6138ff565b8181036020830152613957818c6137b5565b9050818103604083015261396b818b6137b5565b905061397a606083018a6138ff565b61398760808301896138ff565b81810360a083015261399981886137b5565b905081810360c08301526139ad81876137b5565b90506139bc60e0830186613869565b6139ca610100830185613920565b8181036101208301526139dd81846137b5565b90509b9a5050505050505050505050565b600080600060608486031215613a0757613a06613477565b5b6000613a15868287016138aa565b9350506020613a26868287016138aa565b9250506040613a3786828701613827565b9150509250925092565b6000602082019050613a5660008301846138ff565b92915050565b60006040820190508181036000830152613a7681856135a6565b9050613a8560208301846138ff565b9392505050565b600060208284031215613aa257613aa1613477565b5b6000613ab0848285016138aa565b91505092915050565b60008060408385031215613ad057613acf613477565b5b6000613ade85828601613827565b9250506020613aef858286016138aa565b9150509250929050565b613b0281613506565b8114613b0d57600080fd5b50565b600081359050613b1f81613af9565b92915050565b60008060408385031215613b3c57613b3b613477565b5b6000613b4a858286016138aa565b9250506020613b5b85828601613b10565b9150509250929050565b60008060408385031215613b7c57613b7b613477565b5b6000613b8a85828601613827565b9250506020613b9b85828601613827565b9150509250929050565b600080fd5b600080fd5b7f4e487b7100000000000000000000000000000000000000000000000000000000600052604160045260246000fd5b613be7826137a4565b810181811067ffffffffffffffff82111715613c0657613c05613baf565b5b80604052505050565b6000613c1961346d565b9050613c258282613bde565b919050565b600067ffffffffffffffff821115613c4557613c44613baf565b5b613c4e826137a4565b9050602081019050919050565b82818337600083830152505050565b6000613c7d613c7884613c2a565b613c0f565b905082815260208101848484011115613c9957613c98613baa565b5b613ca4848285613c5b565b509392505050565b600082601f830112613cc157613cc0613ba5565b5b8135613cd1848260208601613c6a565b91505092915050565b60008060008060808587031215613cf457613cf3613477565b5b6000613d02878288016138aa565b9450506020613d13878288016138aa565b9350506040613d2487828801613827565b925050606085013567ffffffffffffffff811115613d4557613d4461347c565b5b613d5187828801613cac565b91505092959194509250565b600067ffffffffffffffff821115613d7857613d77613baf565b5b613d81826137a4565b9050602081019050919050565b6000613da1613d9c84613d5d565b613c0f565b905082815260208101848484011115613dbd57613dbc613baa565b5b613dc8848285613c5b565b509392505050565b600082601f830112613de557613de4613ba5565b5b8135613df5848260208601613d8e565b91505092915050565b60008060008060008060c08789031215613e1b57613e1a613477565b5b600087013567ffffffffffffffff811115613e3957613e3861347c565b5b613e4589828a01613dd0565b965050602087013567ffffffffffffffff811115613e6657613e6561347c565b5b613e7289828a01613dd0565b955050604087013567ffffffffffffffff811115613e9357613e9261347c565b5b613e9f89828a01613dd0565b945050606087013567ffffffffffffffff811115613ec057613ebf61347c565b5b613ecc89828a01613dd0565b9350506080613edd89828a01613827565b92505060a087013567ffffffffffffffff811115613efe57613efd61347c565b5b613f0a89828a01613dd0565b9150509295509295509295565b600061014082019050613f2d600083018d6138ff565b8181036020830152613f3f818c6137b5565b90508181036040830152613f53818b6137b5565b9050613f62606083018a6138ff565b8181036080830152613f7481896137b5565b905081810360a0830152613f8881886137b5565b9050613f9760c0830187613920565b613fa460e0830186613920565b613fb26101008301856138ff565b818103610120830152613fc581846137b5565b90509b9a5050505050505050505050565b60008060408385031215613fed57613fec613477565b5b6000613ffb858286016138aa565b925050602061400c858286016138aa565b9150509250929050565b7f4e487b7100000000000000000000000000000000000000000000000000000000600052603260045260246000fd5b7f4e487b7100000000000000000000000000000000000000000000000000000000600052602260045260246000fd5b6000600282049050600182168061408c57607f821691505b602082108114156140a05761409f614045565b5b50919050565b7f4e487b7100000000000000000000000000000000000000000000000000000000600052601160045260246000fd5b60006140e082613568565b91507fffffffffffffffffffffffffffffffffffffffffffffffffffffffffffffffff821415614113576141126140a6565b5b600182019050919050565b7f4552433732313a20617070726f76656420717565727920666f72206e6f6e657860008201527f697374656e7420746f6b656e0000000000000000000000000000000000000000602082015250565b600061417a602c83613760565b91506141858261411e565b604082019050919050565b600060208201905081810360008301526141a98161416d565b9050919050565b7f4552433732313a20617070726f76616c20746f2063757272656e74206f776e6560008201527f7200000000000000000000000000000000000000000000000000000000000000602082015250565b600061420c602183613760565b9150614217826141b0565b604082019050919050565b6000602082019050818103600083015261423b816141ff565b9050919050565b7f4552433732313a20617070726f76652063616c6c6572206973206e6f74206f7760008201527f6e6572206e6f7220617070726f76656420666f7220616c6c0000000000000000602082015250565b600061429e603883613760565b91506142a982614242565b604082019050919050565b600060208201905081810360008301526142cd81614291565b9050919050565b7f4552433732313a207472616e736665722063616c6c6572206973206e6f74206f60008201527f776e6572206e6f7220617070726f766564000000000000000000000000000000602082015250565b6000614330603183613760565b915061433b826142d4565b604082019050919050565b6000602082019050818103600083015261435f81614323565b9050919050565b7f4552433732313a206f776e657220717565727920666f72206e6f6e657869737460008201527f656e7420746f6b656e0000000000000000000000000000000000000000000000602082015250565b60006143c2602983613760565b91506143cd82614366565b604082019050919050565b600060208201905081810360008301526143f1816143b5565b9050919050565b7f4552433732313a2062616c616e636520717565727920666f7220746865207a6560008201527f726f206164647265737300000000000000000000000000000000000000000000602082015250565b6000614454602a83613760565b915061445f826143f8565b604082019050919050565b6000602082019050818103600083015261448381614447565b9050919050565b600061449582613568565b91506144a083613568565b9250828210156144b3576144b26140a6565b5b828203905092915050565b60006144c982613568565b915060008214156144dd576144dc6140a6565b5b600182039050919050565b6000819050919050565b600061450d61450861450384613630565b6144e8565b613630565b9050919050565b600061451f826144f2565b9050919050565b600061453182614514565b9050919050565b61454181614526565b82525050565b600060e08201905061455c600083018a6138ff565b818103602083015261456e81896137b5565b9050818103604083015261458281886137b5565b905061459160608301876138ff565b61459e6080830186613869565b6145ab60a0830185614538565b6145b860c0830184613869565b98975050505050505050565b6000819050919050565b60006145e96145e46145df846145c4565b6144e8565b613568565b9050919050565b6145f9816145ce565b82525050565b600060608201905061461460008301866138ff565b61462160208301856145f0565b61462e60408301846138ff565b949350505050565b7f546865207469746c652063616e6e6f7420626520656d70747900000000000000600082015250565b600061466c601983613760565b915061467782614636565b602082019050919050565b6000602082019050818103600083015261469b8161465f565b9050919050565b7f54686520446174652063616e6e6f7420626520656d7074790000000000000000600082015250565b60006146d8601883613760565b91506146e3826146a2565b602082019050919050565b60006020820190508181036000830152614707816146cb565b9050919050565b7f546865206465736372697074696f6e2063616e6e6f7420626520656d70747900600082015250565b6000614744601f83613760565b915061474f8261470e565b602082019050919050565b6000602082019050818103600083015261477381614737565b9050919050565b7f5468652070726963652063616e6e6f7420626520656d70747900000000000000600082015250565b60006147b0601983613760565b91506147bb8261477a565b602082019050919050565b600060208201905081810360008301526147df816147a3565b9050919050565b7f54686520696d6167652063616e6e6f7420626520656d70747900000000000000600082015250565b600061481c601983613760565b9150614827826147e6565b602082019050919050565b6000602082019050818103600083015261484b8161480f565b9050919050565b600060e082019050614867600083018a6138ff565b818103602083015261487981896137b5565b9050818103604083015261488d81886137b5565b905081810360608301526148a181876137b5565b90506148b060808301866138ff565b6148bd60a0830185613869565b6148ca60c0830184613869565b98975050505050505050565b7f4552433732314d657461646174613a2055524920717565727920666f72206e6f60008201527f6e6578697374656e7420746f6b656e0000000000000000000000000000000000602082015250565b6000614932602f83613760565b915061493d826148d6565b604082019050919050565b6000602082019050818103600083015261496181614925565b9050919050565b600081905092915050565b600061497e82613755565b6149888185614968565b9350614998818560208601613771565b80840191505092915050565b60006149b08285614973565b91506149bc8284614973565b91508190509392505050565b7f4552433732313a206f70657261746f7220717565727920666f72206e6f6e657860008201527f697374656e7420746f6b656e0000000000000000000000000000000000000000602082015250565b6000614a24602c83613760565b9150614a2f826149c8565b604082019050919050565b60006020820190508181036000830152614a5381614a17565b9050919050565b7f4552433732313a207472616e73666572206f6620746f6b656e2074686174206960008201527f73206e6f74206f776e0000000000000000000000000000000000000000000000602082015250565b6000614ab6602983613760565b9150614ac182614a5a565b604082019050919050565b60006020820190508181036000830152614ae581614aa9565b9050919050565b7f4552433732313a207472616e7366657220746f20746865207a65726f2061646460008201527f7265737300000000000000000000000000000000000000000000000000000000602082015250565b6000614b48602483613760565b9150614b5382614aec565b604082019050919050565b60006020820190508181036000830152614b7781614b3b565b9050919050565b6000614b8982613568565b9150614b9483613568565b9250827fffffffffffffffffffffffffffffffffffffffffffffffffffffffffffffffff03821115614bc957614bc86140a6565b5b828201905092915050565b7f4552433732313a207472616e7366657220746f206e6f6e20455243373231526560008201527f63656976657220696d706c656d656e7465720000000000000000000000000000602082015250565b6000614c30603283613760565b9150614c3b82614bd4565b604082019050919050565b60006020820190508181036000830152614c5f81614c23565b9050919050565b7f4552433732313a20617070726f766520746f2063616c6c657200000000000000600082015250565b6000614c9c601983613760565b9150614ca782614c66565b602082019050919050565b60006020820190508181036000830152614ccb81614c8f565b9050919050565b7f4e487b7100000000000000000000000000000000000000000000000000000000600052601260045260246000fd5b6000614d0c82613568565b9150614d1783613568565b925082614d2757614d26614cd2565b5b828204905092915050565b6000614d3d82613568565b9150614d4883613568565b925082614d5857614d57614cd2565b5b828206905092915050565b600081519050919050565b600082825260208201905092915050565b6000614d8a82614d63565b614d948185614d6e565b9350614da4818560208601613771565b614dad816137a4565b840191505092915050565b6000608082019050614dcd6000830187613869565b614dda6020830186613869565b614de760408301856138ff565b8181036060830152614df98184614d7f565b905095945050505050565b600081519050614e13816134ad565b92915050565b600060208284031215614e2f57614e2e613477565b5b6000614e3d84828501614e04565b91505092915050565b7f4552433732313a206d696e7420746f20746865207a65726f2061646472657373600082015250565b6000614e7c602083613760565b9150614e8782614e46565b602082019050919050565b60006020820190508181036000830152614eab81614e6f565b9050919050565b7f4552433732313a20746f6b656e20616c7265616479206d696e74656400000000600082015250565b6000614ee8601c83613760565b9150614ef382614eb2565b602082019050919050565b60006020820190508181036000830152614f1781614edb565b905091905056fea2646970667358221220d56d45724a67e9fb0687102e4c62722cbbc7e4275f14c1d0fbbcc8e058546be764736f6c63430008090033",
  "immutableReferences": {},
  "source": "//SPDX-License-Identifier: MIT\n\npragma solidity ^0.8.7;\nimport \"@openzeppelin/contracts/token/ERC721/ERC721.sol\";\n\n\ncontract Marketplace is ERC721 {\n    struct Art {\n        uint256 id;\n        string title;\n        string description;\n        uint256 price;\n        string date;\n        string authorName;\n        address payable author;\n        address payable owner;\n        // 1 means token has sale status (or still in selling) and 0 means token is already sold,\n        // ownership transferred and moved to off-market gallery\n        uint256 status;\n        string image;\n    }\n\n    struct ArtTxn {\n        uint256 id;\n        uint256 price;\n        address seller;\n        address buyer;\n        uint256 txnDate;\n        uint256 status;\n    }\n\n    uint256 private pendingArtCount; // gets updated during minting(creation), buying and reselling\n    mapping(uint256 => ArtTxn[]) private artTxns;\n    uint256 public index; // uint256 value; is cheaper than uint256 value = 0;.\n    Art[] public arts;\n\n    event LogArtSold(\n        uint256 _tokenId,\n        string _title,\n        string _authorName,\n        uint256 _price,\n        address _author,\n        address _current_owner,\n        address _buyer\n    );\n    event LogArtTokenCreate(\n        uint256 _tokenId,\n        string _title,\n        string _category,\n        string _authorName,\n        uint256 _price,\n        address _author,\n        address _current_owner\n    );\n    event LogArtResell(uint256 _tokenId, uint256 _status, uint256 _price);\n\n    constructor(string memory name, string memory symbol)\n        ERC721(name, symbol)\n    {}\n\n    /* Create or minting the token */\n    function createNFTToken(\n        string memory _title,\n        string memory _description,\n        string memory _date,\n        string memory _authorName,\n        uint256 _price,\n        string memory _image\n    ) public {\n        require(bytes(_title).length > 0, \"The title cannot be empty\");\n        require(bytes(_date).length > 0, \"The Date cannot be empty\");\n        require(\n            bytes(_description).length > 0,\n            \"The description cannot be empty\"\n        );\n        require(_price > 0, \"The price cannot be empty\");\n        require(bytes(_image).length > 0, \"The image cannot be empty\");\n\n        Art memory _art = Art({\n            id: index,\n            title: _title,\n            description: _description,\n            price: _price,\n            date: _date,\n            authorName: _authorName,\n            author: payable(msg.sender),\n            owner: payable(msg.sender),\n            status: 1,\n            image: _image\n        });\n\n        arts.push(_art); // push to the array\n        uint256 tokenId = arts.length - 1; // array length -1 to get the token ID = 0, 1,2 ...\n        _safeMint(msg.sender, tokenId);\n        emit LogArtTokenCreate(\n            tokenId,\n            _title,\n            _date,\n            _authorName,\n            _price,\n            msg.sender,\n            msg.sender\n        );\n        index++;\n        pendingArtCount++;\n    }\n\n    /*\n     *   The buyFinxterArt() function verifies whether the buyer has enough balance to purchase the art.\n     *   The function also checks whether the seller and buyer both have a valid account address.\n     *   The token owner's address is not the same as the buyer's address. The seller is the owner\n     *   of the art. Once all of the conditions have been verified, it will start the payment and\n     *   art token transfer process. _transfer transfers an art token from the seller to the buyer's\n     *   address. _current_owner.transfer will transfer the buyer's payment amount to the art owner's\n     *   account. If the seller pays extra Ether to buy the art, that ether will be refunded to the\n     *   buyer's account. Finally, the buyFinxterArt() function will update art ownership information in\n     *   the blockchain. The status will change to 0, also known as the sold status. The function\n     *   implementations keep records of the art transaction in the ArtTxn array.\n     */\n    function buyNFTArt(uint256 _tokenId) public payable {\n        (\n            uint256 _id,\n            string memory _title,\n            ,\n            uint256 _price,\n            uint256 _status,\n            ,\n            string memory _authorName,\n            address _author,\n            address payable _current_owner,\n\n        ) = findNFTArt(_tokenId);\n        require(_current_owner != address(0));\n        require(msg.sender != address(0));\n        require(msg.sender != _current_owner);\n        require(msg.value >= _price);\n        require(arts[_tokenId].owner != address(0));\n\n        _safeTransfer(_current_owner, msg.sender, _tokenId, \"\"); // transfer ownership of the art\n        //return extra payment\n        if (msg.value > _price)\n            payable(msg.sender).transfer(msg.value - _price);\n        //make a payment to the current owner\n        _current_owner.transfer(_price);\n\n        arts[_tokenId].owner = payable(msg.sender);\n        arts[_tokenId].status = 0;\n\n        ArtTxn memory _artTxn = ArtTxn({\n            id: _id,\n            price: _price,\n            seller: _current_owner,\n            buyer: msg.sender,\n            txnDate: block.timestamp,\n            status: _status\n        });\n\n        artTxns[_id].push(_artTxn);\n        pendingArtCount--;\n        emit LogArtSold(\n            _tokenId,\n            _title,\n            _authorName,\n            _price,\n            _author,\n            _current_owner,\n            msg.sender\n        );\n    }\n\n    /* Pass the token ID and get the art Information */\n    function findNFTArt(uint256 _tokenId)\n        public\n        view\n        returns (\n            uint256,\n            string memory,\n            string memory,\n            uint256,\n            uint256 status,\n            string memory,\n            string memory,\n            address,\n            address payable,\n            string memory\n        )\n    {\n        Art memory art = arts[_tokenId];\n        return (\n            art.id,\n            art.title,\n            art.description,\n            art.price,\n            art.status,\n            art.date,\n            art.authorName,\n            art.author,\n            art.owner,\n            art.image\n        );\n    }\n\n    /*\n     * The resellFinxterArt() function verifies whether the sender's address is valid and makes sure\n     * that only the current art owner is allowed to resell the art. Then, the resellFinxterArt()\n     * function updates the art status from 0 to 1 and moves to the sale state. It also updates\n     * the art's selling price and increases the count of the current total pending arts. emit\n     * LogArtResell() is used to add a log to the blockchain for the art's status and price\n     * changes.\n     */\n    function resellNFTArt(uint256 _tokenId, uint256 _price) public payable {\n        require(msg.sender != address(0));\n        require(isOwnerOf(_tokenId, msg.sender));\n        arts[_tokenId].status = 1;\n        arts[_tokenId].price = _price;\n        pendingArtCount++;\n        emit LogArtResell(_tokenId, 1, _price);\n    }\n\n    /* returns all the pending arts (status =1) back to the user */\n    function findAllPendingArt()\n        public\n        view\n        returns (\n            uint256[] memory,\n            address[] memory,\n            address[] memory,\n            uint256[] memory\n        )\n    {\n        if (pendingArtCount == 0) {\n            return (\n                new uint256[](0),\n                new address[](0),\n                new address[](0),\n                new uint256[](0)\n            );\n        }\n\n        uint256 arrLength = arts.length;\n        uint256[] memory ids = new uint256[](pendingArtCount);\n        address[] memory authors = new address[](pendingArtCount);\n        address[] memory owners = new address[](pendingArtCount);\n        uint256[] memory status = new uint256[](pendingArtCount);\n        uint256 idx = 0;\n        for (uint256 i = 0; i < arrLength; ++i) {\n            Art memory art = arts[i];\n            if (art.status == 1) {\n                ids[idx] = art.id;\n                authors[idx] = art.author;\n                owners[idx] = art.owner;\n                status[idx] = art.status;\n                idx++;\n            }\n        }\n\n        return (ids, authors, owners, status);\n    }\n\n    /* Return the token ID's that belong to the caller */\n    function findMyNFTArts()\n        public\n        view\n        returns (uint256[] memory _myArts, uint256 tokens)\n    {\n        require(msg.sender != address(0));\n        uint256 numOftokens = balanceOf(msg.sender);\n        if (numOftokens == 0) {\n            return (new uint256[](0), 0);\n        } else {\n            uint256[] memory myArts = new uint256[](numOftokens);\n            uint256 idx = 0;\n            uint256 arrLength = arts.length;\n            for (uint256 i = 0; i < arrLength; i++) {\n                if (ownerOf(i) == msg.sender) {\n                    myArts[idx] = i;\n                    idx++;\n                }\n            }\n            return (myArts, numOftokens);\n        }\n    }\n\n    /* return true if the address is the owner of the token or else false */\n    function isOwnerOf(uint256 tokenId, address account)\n        public\n        view\n        returns (bool)\n    {\n        address owner = ownerOf(tokenId);\n        require(owner != address(0));\n        return owner == account;\n    }\n     function get_symbol() external view returns (string memory) {\n        return symbol();\n    }\n\n    function get_name() external view returns (string memory) {\n        return name();\n    }\n}\n",
  "sourcePath": "E:/Blockchain/Final Year Project/marketplace/contracts/Marketplace.sol",
  "compiler": {
    "name": "solc",
    "version": "0.8.9+commit.e5eed63a.Emscripten.clang"
  },
  "schemaVersion": "3.4.1",
  "updatedAt": "2022-05-27T14:24:09.403Z",
  "networkType": "ethereum",
  "devdoc": {
    "kind": "dev",
    "methods": {
      "approve(address,uint256)": {
        "details": "See {IERC721-approve}."
      },
      "balanceOf(address)": {
        "details": "See {IERC721-balanceOf}."
      },
      "getApproved(uint256)": {
        "details": "See {IERC721-getApproved}."
      },
      "isApprovedForAll(address,address)": {
        "details": "See {IERC721-isApprovedForAll}."
      },
      "name()": {
        "details": "See {IERC721Metadata-name}."
      },
      "ownerOf(uint256)": {
        "details": "See {IERC721-ownerOf}."
      },
      "safeTransferFrom(address,address,uint256)": {
        "details": "See {IERC721-safeTransferFrom}."
      },
      "safeTransferFrom(address,address,uint256,bytes)": {
        "details": "See {IERC721-safeTransferFrom}."
      },
      "setApprovalForAll(address,bool)": {
        "details": "See {IERC721-setApprovalForAll}."
      },
      "supportsInterface(bytes4)": {
        "details": "See {IERC165-supportsInterface}."
      },
      "symbol()": {
        "details": "See {IERC721Metadata-symbol}."
      },
      "tokenURI(uint256)": {
        "details": "See {IERC721Metadata-tokenURI}."
      },
      "transferFrom(address,address,uint256)": {
        "details": "See {IERC721-transferFrom}."
      }
    },
    "version": 1
  },
  "userdoc": {
    "kind": "user",
    "methods": {},
    "version": 1
  }
}